:100000000C9458000C9480000C9480000C94800098
:100010000C9480000C9480000C9480000C94800060
:100020000C9480000C9480000C9480000C94800050
:100030000C9480000C9480000C9480000C94800040
:100040000C94ED080C9480000C94BB080C9495085B
:100050000C9480000C9480000C9480000C94800020
:100060000C9480000C948000000000002500280003
:100070002B00040404040404040402020202020229
:10008000030303030303010204081020408001025C
:1000900004081020010204081020000000080002DB
:1000A0000100000304070000000000000000370901
:1000B00011241FBECFEFD8E0DEBFCDBF24E0A8E7FC
:1000C000B1E001C01D92A337B207E1F711E0A0E053
:1000D000B1E0E2ECFAE102C005900D92A837B10759
:1000E000D9F710E0C8E5D0E004C02197FE010E94D6
:1000F000670BC735D107C9F70E947F090C945F0DC4
:100100000C9400000895AF92BF92CF92DF92EF92CD
:10011000FF920F931F93CF93DF936C017B018B01B1
:10012000040F151FEB015E01AE18BF08C017D10701
:1001300059F06991D601ED91FC910190F081E02D8B
:10014000C6010995892B79F7C501DF91CF911F91E0
:100150000F91FF90EF90DF90CF90BF90AF900895F8
:10016000FC01538D448D252F30E0842F90E0821BBD
:10017000930B541710F0CF96089501970895FC0142
:10018000918D828D981761F0A28DAE0FBF2FB11D9A
:100190005D968C91928D9F5F9F73928F90E00895F2
:1001A0008FEF9FEF0895FC01918D828D981731F0AC
:1001B000828DE80FF11D858D90E008958FEF9FEF00
:1001C0000895FC01918D228D892F90E0805C9F4FD6
:1001D000821B91098F739927089587E893E00E9405
:1001E000E10021E0892B09F420E0822F089580E0CE
:1001F00090E0892B29F00E94ED0081110C94000001
:100200000895FC01A48DA80FB92FB11DA35ABF4FAB
:100210002C91848D90E001968F739927848FA68905
:10022000B7892C93A089B1898C91837080648C9359
:10023000938D848D981306C00288F389E02D808108
:100240008F7D80830895EF92FF920F931F93CF933A
:10025000DF93EC0181E0888F9B8D8C8D98131AC001
:10026000E889F989808185FF15C09FB7F894EE89E8
:10027000FF896083E889F989808183708064808345
:100280009FBF81E090E0DF91CF911F910F91FF9090
:10029000EF900895F62E0B8D10E00F5F1F4F0F7338
:1002A0001127E02E8C8D8E110CC00FB607FCFACFF3
:1002B000E889F989808185FFF5CFCE010E9401018F
:1002C000F1CFEB8DEC0FFD2FF11DE35AFF4FF082C4
:1002D0009FB7F8940B8FEA89FB8980818062CFCF2A
:1002E000CF93DF93EC01888D8823B9F0AA89BB896D
:1002F000E889F9898C9185FD03C0808186FD0DC058
:100300000FB607FCF7CF8C9185FFF2CF808185FF78
:10031000EDCFCE010E940101E9CFDF91CF91089589
:1003200090E0FC01E656FF4F2491FC01EA57FF4F95
:100330003491FC01EE58FF4FE491EE23C9F02223E3
:1003400039F0233001F1A8F4213019F1223029F1DC
:10035000F0E0EE0FFF1FE859FF4FA591B4918FB762
:10036000F894EC91611126C030953E233C938FBFE9
:1003700008952730A9F02830C9F0243049F780913A
:1003800080008F7D03C0809180008F7780938000F4
:10039000DFCF84B58F7784BDDBCF84B58F7DFBCF76
:1003A0008091B0008F778093B000D2CF8091B00061
:1003B0008F7DF9CF3E2BDACF61E0FC0184810E9472
:1003C00090018091780181111092780108958EBD7D
:1003D00000000DB407FEFDCF8EB508958FEF0C948D
:1003E000E7010F931F93CF93DF938C012FB7F894FE
:1003F0008091830390918403A0918503B09186033B
:100400002FBFEC010E94EE018F3FB1F02FB7F8949F
:100410008091830390918403A0918503B09186031A
:100420002FBF8C1B9D0B8017910760F380E0DF913D
:10043000CF911F910F91089581E0F9CFCF92DF9274
:10044000EF92FF920F931F93CF93DF93EC01162F40
:1004500069017A018E81882389F08F8198859C01BA
:100460002F5F3F4F38872F838230924018F40E94CD
:10047000EE01F3CFCE010E94DC011E828091780153
:10048000811109C081E080937801909124048091CA
:1004900025049CBD8DBD60E08C810E9490018CE2A2
:1004A00091E00E94F101812F80640E94E70108E140
:1004B00010E0D701C601002E04C0B695A795979508
:1004C00087950A94D2F70E94E70108501109083F66
:1004D0008FEF180771F78FEF0E94E70110E00E947D
:1004E000EE018A8787FF04C01F3F11F01F5FF7CF1F
:1004F000DF91CF911F910F91FF90EF90DF90CF9000
:100500000895EF92FF920F931F93CF93DF93EC0127
:10051000790182E1411551056105710599F08B85DD
:10052000833039F089E0440F551F661F771F8A9585
:10053000D1F79A01AB0168E1CE010E941E02882327
:1005400019F084E08D8330C08EEF0E94E7018701AF
:100550008EEFF81AF80181918F010E94E7010E15C4
:100560001F05C1F78FEF0E94E7018FEF0E94E7019F
:100570000E94EE018A878F71853089F488E592E0C8
:100580000E94F1018823A9F020E030E0A9016DE08C
:10059000CE010E941E02882371F084E1D3CF81E155
:1005A0008D83CE010E94DC01CE010E94DC0180E03F
:1005B0000AC085E1C7CF0E94EE018111EECFCE01C6
:1005C0000E94DC0181E0DF91CF911F910F91FF909C
:1005D000EF90089580917901882389F1409100017D
:1005E0005091010160910201709103012EE731E009
:1005F00090E080E00E948102811102C080E00895B5
:1006000040917A0150917B0160917C0170917D0154
:10061000411551056105710581F02EE731E090E04B
:1006200080E00E948102882349F310927A0110929F
:100630007B0110927C0110927D011092790181E082
:100640000895AF92BF92CF92DF92EF92FF921F93E5
:10065000CF93DF936B017C01142F80910001909167
:100660000101A0910201B09103018C159D05AE0519
:10067000BF0509F4BEC00E94EA028823E1F180911F
:1006800006008823A1F08091000090910100A091C4
:100690000200B0910300C816D906EA06FB0639F439
:1006A0008091070090910800892B09F461C0C092E5
:1006B0000000D0920100E0920200F09203008091CD
:1006C0000B00A7019601833039F099E0220F331F08
:1006D000441F551F9A95D1F761E190E080E00E9498
:1006E0001E02882391F083E08093050090E080E073
:1006F0000E94DC0180E0DF91CF911F91FF90EF908D
:10070000DF90CF90BF90AF9008952FB7F89480916D
:10071000830390918403A0918503B09186032FBF3A
:10072000EC010E94EE0180930A008F3FC1F42FB7C5
:10073000F8948091830390918403A0918503B091F4
:1007400086032FBF8C1B9D0B8D32914050F38FE0A1
:100750008093050090E080E00E94DC01C7CF8E3FCF
:10076000C1F5109208001092070081E08093060006
:10077000CEE7D1E08EE7A82E83E0B82E0E94EE01EE
:100780008993AC16BD06D1F78091070090910800BF
:100790009E5F909308008093070020910900222318
:1007A00019F081159240E8F0809106008823C9F085
:1007B00080910700909108009C012F5F3F4F30937C
:1007C0000800209307008230924028F40E94EE0136
:1007D000EFCF8DE0BDCF90E080E00E94DC01109271
:1007E0000600C0920001D0920101E0920201F09255
:1007F000030140917901412B4093790181E07BCF46
:100800004F925F926F927F928F929F92AF92BF9220
:10081000CF92DF92EF92FF920F931F93CF93DF93CC
:10082000EC01423051056105710590F480E0DF91E3
:10083000CF911F910F91FF90EF90DF90CF90BF90DD
:10084000AF909F908F907F906F905F904F900895A2
:1008500089859A85AB85BC850196A11DB11D84173C
:100860009507A607B70710F3CB88DC88ED88FE88CC
:100870008F89803109F042C0BB27A72F962F852F83
:10088000480159012A013B01C80ED91EEA1EFB1E70
:100890008091000190910101A0910201B0910301AA
:1008A000C816D906EA06FB0699F58F898031C1F58D
:1008B000B301A201552766277727440F551F4258D9
:1008C0005E4FFA01918280828091790181608093EC
:1008D00079018A89823080F08D819E81AF81B885CF
:1008E0008C0D9D1DAE1DBF1D80937A0190937B01E1
:1008F000A0937C01B0937D0181E099CFDB01CA0117
:10090000E7E0B695A79597958795EA95D1F7B8CF83
:1009100040E0C701B6010E9421038111C6CF86CFF6
:10092000B301A2014F77552766277727440F551F3C
:10093000440F551F42585E4FFA0180829182A28275
:10094000B382C2CF8F929F92AF92BF92CF92DF922B
:10095000EF92FF920F931F93CF93DF93FC0181855A
:100960009285A385B4850196A11DB11D84179507B5
:10097000A607B70770F480E0DF91CF911F910F9128
:10098000FF90EF90DF90CF90BF90AF909F908F90AF
:10099000089583889488A588B6888789803189F5E9
:1009A000BB27A72F962F852FE9016A017B018F01B5
:1009B000BC01CD01680D791D8A1D9B1D8090000131
:1009C00090900101A0900201B09003018616970655
:1009D000A806B90601F5F8018789803111F5DD24F3
:1009E000EE24FF24F601EE0FFF1FE258FE4F808138
:1009F0009181B0E0A0E088839983AA83BB8381E0E2
:100A0000BBCFDB01CA01C7E0B695A795979587953F
:100A1000CA95D1F7C9CF40E00E9421038111DBCFF5
:100A2000AACFE894C7F8DD24EE24FF24F601EE0FE8
:100A3000FF1FEE0FFF1FE258FE4F80819181A281C0
:100A4000B381BF70D8CF3F924F925F926F927F92E7
:100A50008F929F92AF92BF92CF92DF92EF92FF92CE
:100A60000F931F93CF93DF93CDB7DEB72C970FB6BD
:100A7000F894DEBF0FBECDBF5C01DC015B968D90AC
:100A80009C905C9716964D905D906D907C90199718
:100A9000411451046104710409F468C0BFEF4B1A9A
:100AA0005B0A6B0A7B0A312CF40181859285A38550
:100AB000B4859C01AD012F5F3F4F4F4F5F4F29879A
:100AC0003A874B875C87730162011D821E821F82F9
:100AD0001886F40181859285A385B4852D813E8198
:100AE0004F815885281739074A075B0708F056C019
:100AF00089859A85AB85BC858C159D05AE05BF059E
:100B000050F482E0C82ED12CE12CF12C92E0492E39
:100B1000512C612C712C9E012F5F3F4FB701A60114
:100B2000C4010E94A2048823C9F189819A81AB8102
:100B3000BC81892B8A2B8B2B09F1260137019FEF72
:100B4000491A590A690A790A2D813E814F815885CF
:100B50002F5F3F4F4F4F5F4F2D833E834F8358870B
:100B60003FEFC31AD30AE30AF30AB3CFF40140807C
:100B70005180628073803324339496CFC414D5049B
:100B8000E604F70409F70FEF1FEF2FEF3FE0B7017F
:100B9000A601C4010E940004811119C080E02C96B6
:100BA0000FB6F894DEBF0FBECDBFDF91CF911F917E
:100BB0000F91FF90EF90DF90CF90BF90AF909F90FC
:100BC0008F907F906F905F904F903F900895F501C8
:100BD0004681578160857185411551056105710513
:100BE00039F097018601C4010E9400048823B1F204
:100BF000D5011696CD92DD92ED92FC921997332095
:100C000051F0D701C6010196A11DB11DF4018083E9
:100C10009183A283B383F5018789908DA18DB28DD5
:100C2000892B8A2B8B2B39F4C78AD08EE18EF28EDA
:100C300084818068848381E0B2CF4F925F926F920B
:100C40007F928F929F92AF92BF92CF92DF92EF925C
:100C5000FF920F931F93CF93DF9300D000D01F928A
:100C6000CDB7DEB78C016D83DC0115968C9115979D
:100C7000813009F01FC114968C91149781FF1AC11D
:100C800082FF12C01A968D909D90AD90BC901D97DA
:100C90005396CD90DD90ED90FC905697C814D904F2
:100CA000EA04FB0409F0A3C0D8015B96ED91FC9126
:100CB0005C971A96AD90BD90CD90DC901D97948076
:100CC0009A94B601A50189E0769567955795479561
:100CD0008A95D1F79422B1E0BB22992009F4FBC098
:100CE000D8015B96ED91FC915C971696CD90DD90C6
:100CF000ED90FC901997B2E0CB1AD108E108F10809
:100D0000858504C0CC0CDD1CEE1CFF1C8A95D2F737
:100D10004685578560897189C40ED51EE61EF71E6B
:100D2000C90CD11CE11CF11CA114B10409F0A1C132
:100D3000F801428553856485758583899489A589E1
:100D4000B689481759076A077B0708F492C10E94C1
:100D5000EA02882309F4AEC0C0920001D0920101DA
:100D6000E0920201F0920301809179018160809309
:100D70007901F501E258FE4F8D818083F80182856B
:100D80009385A485B5850196A11DB11D82879387A2
:100D9000A487B58743895489658976894817590797
:100DA0006A077B0738F42481838B948BA58BB68BE1
:100DB00020682483D80114968C9183FDFCC081E0C7
:100DC00090E00F900F900F900F900F90DF91CF91C8
:100DD0001F910F91FF90EF90DF90CF90BF90AF9059
:100DE0009F908F907F906F905F904F900895C11467
:100DF000D104E104F10461F4F8011682178210862F
:100E000011861A961D921D921D921C921D974CCF11
:100E10005B96ED91FC91858590E00996B501A40162
:100E20004150510961097109082E04C076956795F2
:100E3000579547950A94D2F726013701B1E04B1A2E
:100E400051086108710804C07694679457944794D8
:100E50008A95D2F7441655066606770620F089284B
:100E60008A288B2869F5F8018789908DA18DB28D2C
:100E700086839783A087B1875801F6E0AF0EB11C37
:100E8000D8015B968D919C915C9716964D915D91E2
:100E90006D917C9119974114510461047104A9F07A
:100EA00095010E94A204B1E04B1A51086108710833
:100EB0008111E6CF81E090E0F8019383828354C0F2
:100EC000441A550A660A770AD7CFF801C286D38634
:100ED000E486F586E9CED80116964D915D916D9127
:100EE0007C911997A114B10409F0ACC041155105CA
:100EF0006105710589F557968D919D910D90BC9175
:100F0000A02D0097A105B10509F04FC0C8010E94AE
:100F10002305882379F2D8015B96ED91FC915C97CB
:100F20001696CD90DD90ED90FC901997B2E0CB1A1B
:100F3000D108E108F108858504C0CC0CDD1CEE1C4D
:100F4000FF1C8A95D2F74685578560897189C40E42
:100F5000D51EE61EF71EECCE9E012F5F3F4FCF0140
:100F60000E94A204811103C090E080E02ACF898111
:100F70009A81AB81BC81F801238D348DF9012789D9
:100F800048EF5FEF60E070E0203121F048EF5FEF65
:100F90006FEF7FE084179507A607B70730F0C80109
:100FA0000E94230581119CCE85CFF801868397830B
:100FB000A087B18795CEF8019581992309F47ACF5E
:100FC00087FF3BC0668577858089918941E00E94D3
:100FD0002103882309F46ECFD8015296EC91B0E238
:100FE000EB9FF0011124E258FE4F309709F462CFD5
:100FF000D80115968C911597823050F453964D91E7
:101000005D916D917C915697448F558F668F778F48
:10101000D80157968D919C915897938F828F5796B0
:101020004D915D916D917C915A97758B648B14965F
:101030008C9114978F7714968C930E94EA028111F9
:10104000BECE38CF6A017B0122E0C21AD108E10886
:10105000F108858504C0CC0CDD1CEE1CFF1C8A95B4
:10106000D2F74685578560897189C40ED51EE61E64
:10107000F71E41E0C701B6010E942103811179CE1C
:1010800019CF90E080E008950F931F93CF93DF93E3
:10109000EC0188819981009759F02A813B812617BC
:1010A000370730F081E0DF91CF911F910F910895C4
:1010B0008B016F5F7F4F0E94920C009759F09983CC
:1010C00088831B830A832C813D81232B59F7FC01E4
:1010D0001082E8CF80E0E7CFCF93DF93EC01198255
:1010E00018821B821A821D821C8270E060E00E94BE
:1010F00044082881398181110FC02115310519F06B
:10110000C9010E94090C198218821D821C821B824F
:101110001A82DF91CF9108951D821C8266E771E0EB
:10112000C901DF91CF910C94580D1F920F920FB609
:101130000F9211242F933F934F935F936F937F935D
:101140008F939F93AF93BF93EF93FF9387E893E0C1
:101150000E940101FF91EF91BF91AF919F918F91FB
:101160007F916F915F914F913F912F910F900FBEA3
:101170000F901F9018951F920F920FB60F92112487
:101180002F938F939F93EF93FF93E0919703F091A9
:1011900098038081E0919D03F0919E0382FD1BC026
:1011A00090818091A0038F5F8F732091A10382179C
:1011B00041F0E091A003F0E0E957FC4F958F809358
:1011C000A003FF91EF919F918F912F910F900FBEF0
:1011D0000F901F9018958081F4CF1F920F920FB639
:1011E0000F9211242F933F938F939F93AF93BF93AD
:1011F0008091830390918403A0918503B09186032D
:101200003091820323E0230F2D3758F50196A11D5D
:10121000B11D209382038093830390938403A09352
:101220008503B093860380917E0390917F03A09104
:101230008003B09181030196A11DB11D80937E03AF
:1012400090937F03A0938003B0938103BF91AF91EC
:101250009F918F913F912F910F900FBE0F901F90F4
:10126000189526E8230F0296A11DB11DD2CFE7E8FD
:10127000F3E01382128288EE93E0A0E0B0E0848372
:101280009583A683B7838AE591E09183808385EC7B
:1012900090E09587848784EC90E09787868780EC40
:1012A00090E0918B808B81EC90E0938B828B82EC31
:1012B00090E0958B848B86EC90E0978B868B118EDB
:1012C000128E138E148EE4E2F4E080E580831182A6
:1012D000E6E2F4E0158216821186138682E090E041
:1012E000A0E0B0E084879587A687B78713A215A6EC
:1012F00014A68CE691E093A782A717A60895CF9332
:10130000DF93CDB7DEB7C656D1090FB6F894DEBF6E
:101310000FBECDBF789484B5826084BD84B58160F2
:1013200084BD85B5826085BD85B5816085BD8091B0
:101330006E00816080936E00109281008091810028
:101340008260809381008091810081608093810020
:10135000809180008160809380008091B1008460E2
:101360008093B1008091B00081608093B000809143
:101370007A00846080937A0080917A008260809302
:101380007A0080917A00816080937A0080917A005F
:10139000806880937A001092C100E0919703F091E9
:1013A000980382E08083E0919303F091940310828C
:1013B000E0919503F09196038FEC808310929F0348
:1013C000E0919B03F0919C0386E08083E091990378
:1013D000F0919A03808180618083E0919903F0917C
:1013E0009A03808188608083E0919903F0919A0349
:1013F000808180688083E0919903F0919A038081D5
:101400008F7D8083CE018F599F4F0E946C08CE0143
:10141000855A9F4F0E946C088CE4EAE0F1E0DE01FF
:10142000119601900D928A95E1F767961FAE1EAE58
:10143000679769961FAE1EAE69976B961FAE1EAE7C
:101440006B9770E060E0CE018B5A9F4F0E9444087A
:1014500067962EAD3FAD67978111A4C02115310568
:1014600019F0C9010E94090C67961FAE1EAE67975E
:101470006B961FAE1EAE6B9769961FAE1EAE699738
:10148000CE0101967C016E019DE4C90ED11CF701CD
:10149000819191917F014AE0B601FAE78F270E947E
:1014A000FB0AF60101900020E9F73197EC19FD09DC
:1014B000F9F06B960EAD1FAD6B970E0F1F1FB801A5
:1014C000CE018B5A9F4F0E944408882389F067966B
:1014D0002EAD3FAD67976B968EAD9FAD6B97B60106
:1014E000820F931F0E94580D6B961FAF0EAF6B9724
:1014F000EC14FD0461F66D968EAD9FAD6D97679609
:101500006EAD7FAD6797009709F458C061157105FE
:1015100009F452C06F964EAD5FAD6F976B962EADCE
:101520003FAD6B974217530708F446C00E94580D11
:101530006B968EAD9FAD6B97A1969FAF8EAFA19727
:1015400067968EAD9FAD67970E94090CA1964EAD30
:101550005FADA1976D966EAD7FAD6D9787E893E017
:101560000E94830042E050E064E771E087E893E086
:101570000E9483006D968EAD9FAD6D970E94090C01
:10158000A3968EAD9FADA3970E94090C00E010E0DA
:1015900001151105E9F30E94ED008823C9F30E94AB
:1015A0000000F6CF6B961FAE1EAE6B9766E771E03C
:1015B000C9010E94580D64CF0E94090C67968EAD38
:1015C0009FAD67976D969FAF8EAF6D9769968EAD05
:1015D0009FAD69976F969FAF8EAF6F976B968EADED
:1015E0009FAD6B97A1969FAF8EAFA19767961FAEE9
:1015F0001EAE6797A5CFBB274A3031F4992322F45A
:10160000BDE2909581959F4F0C94070BBB27FB0182
:101610005527AA27880F991FAA1FA41710F0A41BEB
:1016200083955051B9F7A05DAA3308F0A95DA19345
:10163000009779F7B111B1931192CB010C94200B63
:10164000DC01FC01672F71917723E1F7329704C029
:101650007C916D9370836291AE17BF07C8F30895B4
:101660002F923F924F925F926F927F928F929F92B2
:10167000AF92BF92CF92DF92EF92FF920F931F93A0
:10168000CF93DF93CDB7DEB7CA1BDB0B0FB6F89451
:10169000DEBF0FBECDBF09942A88398848885F8491
:1016A0006E847D848C849B84AA84B984C884DF8002
:1016B000EE80FD800C811B81AA81B981CE0FD11DE6
:1016C0000FB6F894DEBF0FBECDBFED010895EE0F4B
:1016D000FF1F0590F491E02D09940F931F93CF9372
:1016E000DF938230910510F482E090E0E091710484
:1016F000F091720430E020E0B0E0A0E0309799F47F
:101700002115310509F44AC0281B390B2430310555
:10171000D8F58A819B816115710589F1FB0193835D
:101720008283FE0111C040815181028113814817DB
:101730005907E0F04817590799F4109761F012968D
:101740000C93129713961C933296CF01DF91CF9191
:101750001F910F9108950093710410937204F4CFB8
:101760002115310551F04217530738F0A901DB016B
:101770009A01BD01DF01F801C1CFEF01F9CF9093CC
:10178000720480937104CDCFFE01E20FF31F8193A9
:1017900091932250310939832883D7CF20916F0448
:1017A00030917004232B41F4209106013091070100
:1017B0003093700420936F0420910401309105014F
:1017C0002115310541F42DB73EB7409108015091E4
:1017D0000901241B350BE0916F04F0917004E217AE
:1017E000F307A0F42E1B3F0B2817390778F0AC0144
:1017F0004E5F5F4F2417350748F04E0F5F1F509321
:10180000700440936F04819391939FCFF0E0E0E0E8
:101810009CCFCF93DF930097E9F0FC0132971382BE
:101820001282A0917104B0917204ED0130E020E0C9
:101830001097A1F420813181820F931F20916F04B2
:10184000309170042817390709F061C0F0937004D3
:10185000E0936F04DF91CF910895EA01CE17DF077F
:10186000E8F54A815B819E0141155105B1F7E90117
:10187000FB83EA8349915991C40FD51FEC17FD07EB
:1018800061F4808191810296840F951FE90199830B
:101890008883828193819B838A83F0E0E0E01296C3
:1018A0008D919C9113970097B9F52D913C911197CB
:1018B000CD010296820F931F20916F043091700426
:1018C0002817390739F6309751F5109272041092A3
:1018D0007104B0937004A0936F04BCCFD383C28310
:1018E00040815181840F951FC817D90761F44E5F5D
:1018F0005F4F88819981480F591F518340838A81A6
:101900009B81938382832115310509F0B0CFF09339
:101910007204E09371049ECFFD01DC01C0CF1382FD
:101920001282D7CFB0E0A0E0E8E9FCE00C94320BE3
:101930008C01009751F4CB010E946D0B8C01C80102
:10194000CDB7DEB7E0E10C944E0BFC01E60FF71FBC
:101950009C0122503109E217F30708F49DC0D90118
:10196000CD91DC911197C617D70798F0C530D105F6
:1019700030F3CE0104978617970708F3C61BD70BE1
:101980002297C193D1936D937C93CF010E94090C50
:10199000D6CF5B01AC1ABD0A4C018C0E9D1EA091E6
:1019A0007104B0917204512C412CF12CE12C109750
:1019B00031F580916F04909170048815990509F0B4
:1019C0005CC04616570608F058C0809104019091FB
:1019D0000501009741F48DB79EB7409108015091E1
:1019E0000901841B950BE817F90708F055C0F0931F
:1019F0007004E0936F04F90171836083A0CF8D912F
:101A00009C91119712966C90129713967C90139755
:101A1000A815B90559F56C0142E0C40ED11CCA14D1
:101A2000DB0420F1AC014A195B09DA011296159723
:101A300080F06282738251834083D9016D937C93DD
:101A4000E114F10471F0D7011396FC93EE93129711
:101A500076CF22968C0F9D1FF90191838083F3012D
:101A6000EFCFF0937204E093710469CF48165906E2
:101A700008F42C017D01D3019ACFCB010E946D0B9C
:101A80007C01009749F0AE01B8010E944F0DC801DA
:101A90000E94090C870153CF10E000E050CFFB01FA
:101AA000DC0102C001900D9241505040D8F70895DA
:101AB000FB01DC0101900D920020E1F70895F894FC
:021AC000FFCF56
:101AC200FFFFFFFF0000730480001C0016001B00D4
:101AD2001D0001004900180043001B0049004B0093
:101AE20019001C001C00190018004F001B001F00E9
:101AF20018004C001E0019001C004A001B004D007B
:101B02004E004D0042004A004A001E004C001C00DC
:101B12004A004D0007000000000023018300B000CE
:101B22007001E100BF00D300000000001D06830029
:081B3200410882000D0A0000C9
:00000001FF
